{
  "contractName": "Authentication",
  "abi": [
    {
      "inputs": [],
      "payable": false,
      "stateMutability": "nonpayable",
      "type": "constructor"
    },
    {
      "constant": true,
      "inputs": [],
      "name": "owner",
      "outputs": [
        {
          "internalType": "address",
          "name": "",
          "type": "address"
        }
      ],
      "payable": false,
      "stateMutability": "view",
      "type": "function"
    },
    {
      "constant": false,
      "inputs": [
        {
          "internalType": "address",
          "name": "addr",
          "type": "address"
        }
      ],
      "name": "DoAuthenticate",
      "outputs": [
        {
          "internalType": "bool",
          "name": "",
          "type": "bool"
        }
      ],
      "payable": false,
      "stateMutability": "nonpayable",
      "type": "function"
    },
    {
      "constant": false,
      "inputs": [
        {
          "internalType": "address",
          "name": "addr",
          "type": "address"
        }
      ],
      "name": "RemoveAuthentication",
      "outputs": [
        {
          "internalType": "bool",
          "name": "",
          "type": "bool"
        }
      ],
      "payable": false,
      "stateMutability": "nonpayable",
      "type": "function"
    },
    {
      "constant": true,
      "inputs": [
        {
          "internalType": "address",
          "name": "addr",
          "type": "address"
        }
      ],
      "name": "AuthOrNot",
      "outputs": [
        {
          "internalType": "bool",
          "name": "",
          "type": "bool"
        }
      ],
      "payable": false,
      "stateMutability": "view",
      "type": "function"
    }
  ],
  "bytecode": "0x608060405234801561001057600080fd5b50336000806101000a81548173ffffffffffffffffffffffffffffffffffffffff021916908373ffffffffffffffffffffffffffffffffffffffff1602179055506104a7806100606000396000f3fe608060405234801561001057600080fd5b506004361061004c5760003560e01c80631c08b168146100515780635309a276146100ad5780638da5cb5b14610109578063983e070414610153575b600080fd5b6100936004803603602081101561006757600080fd5b81019080803573ffffffffffffffffffffffffffffffffffffffff1690602001909291905050506101af565b604051808215151515815260200191505060405180910390f35b6100ef600480360360208110156100c357600080fd5b81019080803573ffffffffffffffffffffffffffffffffffffffff169060200190929190505050610328565b604051808215151515815260200191505060405180910390f35b6101116103df565b604051808273ffffffffffffffffffffffffffffffffffffffff1673ffffffffffffffffffffffffffffffffffffffff16815260200191505060405180910390f35b6101956004803603602081101561016957600080fd5b81019080803573ffffffffffffffffffffffffffffffffffffffff169060200190929190505050610404565b604051808215151515815260200191505060405180910390f35b60008060009054906101000a900473ffffffffffffffffffffffffffffffffffffffff1673ffffffffffffffffffffffffffffffffffffffff163373ffffffffffffffffffffffffffffffffffffffff1614610273576040517f08c379a00000000000000000000000000000000000000000000000000000000081526004018080602001828103825260148152602001807f596f7520617265206e6f7420616e2041444d494e00000000000000000000000081525060200191505060405180910390fd5b600160008154809291906001900391905055506000600260008473ffffffffffffffffffffffffffffffffffffffff1673ffffffffffffffffffffffffffffffffffffffff168152602001908152602001600020819055506000600360008473ffffffffffffffffffffffffffffffffffffffff1673ffffffffffffffffffffffffffffffffffffffff16815260200190815260200160002060006101000a81548160ff021916908315150217905550919050565b6000600160008154809291906001019190505550600154600260008473ffffffffffffffffffffffffffffffffffffffff1673ffffffffffffffffffffffffffffffffffffffff168152602001908152602001600020819055506001600360008473ffffffffffffffffffffffffffffffffffffffff1673ffffffffffffffffffffffffffffffffffffffff16815260200190815260200160002060006101000a81548160ff021916908315150217905550919050565b6000809054906101000a900473ffffffffffffffffffffffffffffffffffffffff1681565b600060011515600360008473ffffffffffffffffffffffffffffffffffffffff1673ffffffffffffffffffffffffffffffffffffffff16815260200190815260200160002060009054906101000a900460ff1615151415610468576001905061046d565b600090505b91905056fea265627a7a72315820ed0c79786e70536fcf6be70b27883a4ac2fa2952d41923c5529cfee2c356a75f64736f6c63430005100032",
  "source": "pragma solidity ^0.5.16;\n\ncontract Authentication{\n\n    // struct userr{\n    //     uint id;\n    //     address addr;\n    // }\n\n    address public owner;\n    modifier _ownerOnly(){\n\n        require(msg.sender == owner,'You are not an ADMIN');\n        _;\n    }\n\n    constructor() public{\n        owner = msg.sender;\n        }\n\n    uint private UserCount;\n\n//  creating mapping of user\n//  mapping of user id to address\n    mapping (address => uint) private UserId;\n//  mapping to store users authentication\n    mapping (address => bool) private authOrNot;\n\n    function DoAuthenticate (address addr) public  returns(bool){\n        UserCount ++;\n        UserId[addr] = UserCount;\n        authOrNot[addr] = true;\n\n    }\n\n    function RemoveAuthentication(address addr ) public _ownerOnly returns(bool){\n        UserCount --;\n        UserId[addr] = 0;\n        authOrNot[addr] = false;\n\n    }\n\n    function AuthOrNot(address addr) public view returns(bool){\n        if(authOrNot[addr] == true){\n            return true;\n        }\n        else {\n            return false;\n        }\n    }\n\n}",
  "sourcePath": "/home/ashu/Desktop/Blockchain/live project/contracts/Authentication.sol",
  "compiler": {
    "name": "solc",
    "version": "0.5.16+commit.9c3226ce.Emscripten.clang"
  },
  "schemaVersion": "3.2.0",
  "updatedAt": "2020-07-31T11:45:24.566Z",
  "networkType": "ethereum",
  "devdoc": {
    "methods": {}
  },
  "userdoc": {
    "methods": {}
  }
}